:020000020000FC
:2000000000400074084008140800683A00000000000000000000000000000000000000001E
:2000080006C00074DEE8781406800074D6A3B214008000741083F01400C0007418C3F31472
:2000100010C00326100000151080010410FFFD360010C1800010CF80003FFF06DEFFFB040B
:20001800DCC00315DC40011524C03FCC044000B4DC800215DFC00415DC0000159C810014AE
:200020008C4400048C8000350400FA048009883A0010B9008CC000358009883A0010B90000
:200028008C8000358009883ADFC00417DCC00317DC800217DC400117DC000017DEC0050479
:200030000010B901DEFFFB04DC800215DC000015048000B424003FCCDCC00315DFC00415D3
:20003800DC40011584C180149484000494C000350440FA048809883A0010B9008400801482
:20004000940000358809883A0010B90094C000358809883ADFC00417DCC00317DC800217FA
:20004800DC400117DC000017DEC005040010B901DEFFFE04DC000015DFC001152021883A78
:200050008100000320803FCC1080201C10BFE0041000042621003FCC00100C408400004458
:20005800003FF706DFC00117DC000017DEC00204F800283A01000074DEFFFB0421037104BA
:20006000DFC00415DC000315D8000015D8000115D800020D0010D24001000E04001005C008
:20006800010003C4001005C001000044001005C001000184040000B4001005C0840404041E
:20007000818000370140007429437704D809883A001026400100007421037804001013004B
:20007800D809883A00101300010000B42121A8040010B90001000044001005C0003FF006E7
:20008000DEFFF704DFC00715D9C0081500808204D880000D00A0003410BFFFC4D8800515D4
:20008800D880031500BFFFC4D880008D00800074D9400415D940021510822404D9C00804CC
:20009000D80B883AD8800115D800061500103480D8C0041718000005DFC00717DEC009044E
:20009800F800283ADEFFF604DFC00715D9800815D9C0091500808204D880000D00A00034F0
:2000A00010BFFFC4D8800515D880031500BFFFC4D880008D0080007410822404D880011549
:2000A800008000741083B304D9000415D900021511000017280D883AD9C00804D80B883AAF
:2000B000D800061500103480D8C0041718000005DFC00717DEC00A04F800283ADEFFFB040A
:2000B800DC800315DC400215DC000115DFC004152025883A2823883AD98000053821883A4A
:2000C00004000A0E8880011701C00044D80D883A880B883A9009883A103EE83A843FFFC492
:2000C800103FF72600BFFFC4000001060005883ADFC00417DC800317DC400217DC00011703
:2000D000DEC00504F800283ADEFFE504D8C00804DDC01815DD801715DD401615DD00151503
:2000D800DCC01415DC801315DC401215DC001115DFC01A15DF0019152029883A2823883A87
:2000E000382D883AD9800F150021883AD8000E15D8000A15002B883A0027883A0025883ACA
:2000E800D8000C15D8000B15002F883AD8C00915D8C00F171900000320803FCC1080201C0F
:2000F00010BFE00410011E2600C00044B8C014261DC00216B8000626000115060140008478
:2000F800B9401D26014000C4B9402B2600011006014009441140FC2688800117D900000547
:2001000001C00044D80D883A880B883AA009883A103EE83A1000D81E84000044000104062A
:2001080001400C041140FA260140094411400A1ED880000588800117B80F883AD80D883A61
:20011000880B883AA009883A103EE83A1000CA1E840000440000F50625FFF404BDC03FCC40
:2001180000C002441DC0093600BFFFC490800426014002849009883A0010B680000001067A
:200120000005883AB8A5883A0000E20601400B841140E42605C00084213FF40427003FCCF3
:2001280000C002441F00093600BFFFC498800426014002849809883A0010B6800000010618
:200130000005883AE0A7883A0000D90600C01B0410C0D226013FFFC499000226D8000B155D
:200138000000010604C0004401001A441100162620800916010018C4110088260100190473
:2001400011001126010016041100C81E00C00044D8C00E150000150601001CC411009826BB
:200148002080041601001BC41100C01E0540020400000F0601001D4411000D2601001E04E5
:2001500011000A260000B906D8C00A17B700010418000726DF000D15B5C00017B800080E7A
:2001580005EFC83A024000440000060605400404B0C00104D8C00D15B5C00017D8000A1500
:200160000013883AD839883AB8001726A80B883AB809883ADA4010150010AAC0A80B883ABC
:200168001009883A102D883A0010B680B885C83A00C00244DA4010171880021610800C0481
:2001700000000506D8C00E171800022610800DC400000106108015C4E0800005B02F883A90
:20017800E7000044003FE806E6EFC83A9DC5C83A0080090EE085883A01400C04D8C009170D
:20018000E009883AE0C0032EE700004421400005E0BFFA1EE6EFC83AD8C00B174DD1883A2A
:20018800922DC83A1800162648000A2600800B44D88008058880011701C00044D98008040C
:20019000880B883AA009883A103EE83A10004A1E840000440580070EB00F883A01800C0433
:20019800880B883AA009883A00102DC01000421E85A1883AE02D883ABF2FC83A000020064D
:2001A0000580090EB00F883A01800804880B883AA009883ADA40101500102DC0DA40101758
:2001A8001000351E85A1883A483FF22600800B44D88008058880011701C00044D98008048F
:2001B000880B883AA009883A103EE83A10002A1E84000044003FE706B5BFFFC4B080000349
:2001B80001C00044D9800804D880080588800117880B883AA009883A103EE83A10001E1EBC
:2001C0008585C83AB5C9883AE085883A013FF2161021883ADD800D170000440600800044E2
:2001C8001480080E95FFFFC4B80F883A01800804880B883AA009883A00102DC010000E1E07
:2001D00085E1883AB080001701C00044D80D883AD880000588800117880B883AA009883AB7
:2001D800B5C00104103EE83A1000031E84000044B82D883A00002D0600BFFFC40000310691
:2001E000B5C00017B7000104B809883A001099809091C83A102D883A0200090E400F883ABF
:2001E80001800804880B883AA009883ADA00101500102DC0DA001017103FEF1E8221883AEC
:2001F00088800117B00F883AB80D883A880B883AA009883A103EE83A103FE71E85A1883A5B
:2001F800E02D883A0000110600C0004404FFFFC4D8000E15D8C00A15054002849825883A3B
:20020000D8000C15D8000B15182F883A00000806DDC00B1505C000840000050600C00044C1
:20020800D8C00C1505C000C400000106002F883AD8C00F1718C00044D8C00F15003EDC06E6
:200210008005883ADFC01A17DF001917DDC01817DD801717DD401617DD001517DCC0141737
:20021800DC801317DC401217DC001117DEC01B04F800283A008000741083B304300F883AA1
:20022000280D883A200B883A11000017001034812880000B10C0020C1800202628C0008F87
:20022800DEFFFD04DC000015DFC00215DC4001152821883A1800150E10C0800C180013260C
:200230002C40051789C0030E10C0200C1800032600000E063C40010E3823883A8100041737
:20023800300B883A880D883A00109380808005171445C83A80800515808004171463883A4A
:20024000844004150005883A00000606108010148080000D00BFFFC40000020600BFFFC421
:20024800F800283ADFC00217DC400117DC000017DEC00304F800283A2005883A218F883A05
:20025000290002361007883A00000C062987883A20FFFC2E380B883A30CDC83A1989883A1F
:200258002000052618FFFFC419000003297FFFC429000005003FF906F800283A19C0052610
:200260002900000318C0004429400044193FFFC5003FFA06F800283A2005883A10C0000716
:200268001800022610800044003FFC061105C83AF800283A20001B16000F883A2800161639
:20027000200D883A29001A2E0080080400C000440000010610000D26294B883A10BFFFC46C
:2002780018C7883A293FFB360005883A180007260005883A31400236314DC83A10C4B03A72
:200280001806D07A280AD07A183FFA1E380001260085C83AF800283A014BC83A39C0005C28
:20028800003FE7060109C83A01C00044003FE30600C00044003FEE0620001716000F883A9C
:200290002005883A280012162900162E0180080400C000440000010630000A26294B883A7C
:2002980031BFFFC418C7883A293FFB36180005261806D07A114001361145C83A280AD07A52
:2002A000183FFB1E380001260085C83AF800283A014BC83A003FEC060109C83A01C00044FE
:2002A800003FE70600C00044003FF106200D883A2900152E280014160080080400C0004493
:2002B0000000020610000E2628000516294B883A10BFFFC418C7883A293FFA361800082658
:2002B8000005883A31400236314DC83A10C4B03A1806D07A280AD07A183FFA1EF800283ACB
:2002C0000005883AF800283A00C00044003FF4062005883A2900122E280011160180080494
:2002C80000C000440000020630000C2628000516294B883A31BFFFC418C7883A293FFA3643
:2002D000180006261806D07A114001361145C83A280AD07A183FFB1EF800283AF800283AE2
:2002D80000C00044003FF7060005883A2000072620C0004C2008D07A180001261145883ABD
:2002E000294B883A203FFA1EF800283AF800283A014666B4DEFFFE0429666644DC00001533
:2002E800DFC001152021883A0010AAC01000102601600034013999B40007883A297FFFC42E
:2002F000211999C4297FFFC4283FFE1E18C000448121883A18BFFB16014001448009883A30
:2002F8000010B68010BFFFC4103FFE1E00000506014001448009883A0010B68010BFFFC4EF
:2003000000BFFE160005883ADFC00117DC000017DEC00204F800283ADEFFFF040100007446
:2003080001400074DFC0001521037A042943B5042140061E010000740140007421000804C9
:20031000294008042140121E00000B0600C0007418C3B5041907C83A0005883A10FFF526DB
:20031800114F883A39C00017110D883A1080010431C00015003FF9060100007401400074B0
:2003200021037104294371042140101E00000B0600C0007418C008041907C83A0005883AA2
:2003280010FFF526114F883A39C00017110D883A1080010431C00015003FF9060010DB4075
:20033000DFC00017DEC001040010DB8100C0007418C37A041907C83A0005883A18BFF7267E
:20033800114F883A39C00017110D883A1080010431C00015003FF906DEFFFF040009883A0F
:20034000DFC000150010D5C00010D7C0D1A03E17D1603F17D1204017DFC00017DEC00104AF
:2003480000101741DEFFFE04DC000015DFC001152021883A0010998001000074000F883A36
:20035000100D883A800B883A2103B404DFC00117DC000017DEC002040010D801DEFFFF046E
:20035800DFC000150010DBC0008000441001703ADFC00017DEC00104F800283AF800283A9A
:20036000210000173005883A298D883A21C001042980072E38C0003718FFFFEC183FFC2668
:2003680028C0000720C0003529400044003FF806F800283AF800283AF800283A000170FA0E
:20037000F800283A6C6C65487266206F4E206D6F20736F690A21494900000000000064252C
:200378003A4D5052000000200000000000000000000000000000000000000000000000001C
:2003800000000000000000000000000000000000000000000000000000000000000000005D
:20038800000000000000000000000000000000000000000000000000000000000000000055
:2003900000000000000000000000000000000000000000000000000000000000000000004D
:20039800000000000000000000000000000000000000000000000000000000000000000045
:2003A00000000000000000000000000000000000000000000000000000000000000000003D
:2003A800000000000000000000000000000000000000000000000000000000000000000035
:2003B00000000000000000000000000000000000000000000000000000010EA800010EB0B7
:2003B80000010EB8000000000000000000000000000000000000000000000000000000005E
:2003C00000000000000000000000000000000000000000000000000000000000000000001D
:2003C800000000000000000000000000000000000000000000000000000000000000000015
:2003D00000000000000000000000000000000000000000000000000000000000000000000D
:2003D800000000000000000000000000000000000000000000000000000000000000000005
:2003E000000000000000000000000000000000000000000000000004000000000001000AEE
:2003E800000000000002000A00000000000000000000000000010DE800010DE800021030BB
:2003F0000000000000000000000000000000000000000000000000000000000000000000ED
:2003F8000000000000000000000000000000000000000000000000000000000000000000E5
:200400000000000000000000000000000000000000000000000000000000000000000000DC
:200408000000000000000000000000000000000000000000000000000000000000000000D4
:00000001FF
